{
  "address": "0x8f0131572535FFC096E40a392dd62E79B71fF319",
  "abi": [
    {
      "inputs": [
        {
          "internalType": "address",
          "name": "_owner",
          "type": "address"
        }
      ],
      "stateMutability": "nonpayable",
      "type": "constructor"
    },
    {
      "inputs": [],
      "name": "betAmount",
      "outputs": [
        {
          "internalType": "uint256",
          "name": "",
          "type": "uint256"
        }
      ],
      "stateMutability": "view",
      "type": "function"
    },
    {
      "inputs": [
        {
          "internalType": "bytes32",
          "name": "sessionId",
          "type": "bytes32"
        }
      ],
      "name": "findSession",
      "outputs": [
        {
          "components": [
            {
              "internalType": "bool",
              "name": "exists",
              "type": "bool"
            },
            {
              "internalType": "uint256",
              "name": "bet",
              "type": "uint256"
            }
          ],
          "internalType": "struct Game1.SessReturn",
          "name": "",
          "type": "tuple"
        }
      ],
      "stateMutability": "view",
      "type": "function"
    },
    {
      "inputs": [
        {
          "internalType": "bytes32",
          "name": "sessionId",
          "type": "bytes32"
        }
      ],
      "name": "getBetValue",
      "outputs": [
        {
          "internalType": "uint256",
          "name": "",
          "type": "uint256"
        }
      ],
      "stateMutability": "view",
      "type": "function"
    },
    {
      "inputs": [
        {
          "internalType": "bytes32",
          "name": "sessionId",
          "type": "bytes32"
        },
        {
          "internalType": "address",
          "name": "player",
          "type": "address"
        }
      ],
      "name": "getResult",
      "outputs": [
        {
          "internalType": "int256",
          "name": "",
          "type": "int256"
        }
      ],
      "stateMutability": "view",
      "type": "function"
    },
    {
      "inputs": [
        {
          "internalType": "bytes32",
          "name": "sessionId",
          "type": "bytes32"
        },
        {
          "internalType": "uint256",
          "name": "num",
          "type": "uint256"
        }
      ],
      "name": "newGame",
      "outputs": [
        {
          "internalType": "int256",
          "name": "",
          "type": "int256"
        }
      ],
      "stateMutability": "payable",
      "type": "function"
    },
    {
      "inputs": [],
      "name": "owner",
      "outputs": [
        {
          "internalType": "address",
          "name": "",
          "type": "address"
        }
      ],
      "stateMutability": "view",
      "type": "function"
    },
    {
      "inputs": [
        {
          "internalType": "bytes32",
          "name": "",
          "type": "bytes32"
        }
      ],
      "name": "sessions",
      "outputs": [
        {
          "internalType": "uint256",
          "name": "bet",
          "type": "uint256"
        }
      ],
      "stateMutability": "view",
      "type": "function"
    },
    {
      "inputs": [],
      "name": "soldi",
      "outputs": [
        {
          "internalType": "uint256",
          "name": "",
          "type": "uint256"
        }
      ],
      "stateMutability": "view",
      "type": "function"
    }
  ],
  "transactionHash": "0x2c112381f9bf5cf2502bbf40b3df2fa9a16e7fbeb018e7afc3cb935a89c5435c",
  "args": [
    "0xaD6b14A606bEdF47a97258B190B161606ACf930D"
  ],
  "numDeployments": 1,
  "solcInputHash": "dd295e7a215650db2faa318fbecd9b85",
  "bytecode": "0x60a060405234801561001057600080fd5b506040516108ef3803806108ef83398101604081905261002f9161004b565b6001600160a01b0316608052666a94d74f43000060005561007b565b60006020828403121561005d57600080fd5b81516001600160a01b038116811461007457600080fd5b9392505050565b60805161085261009d60003960008181610142015261060201526108526000f3fe60806040526004361061007b5760003560e01c80638da5cb5b1161004e5780638da5cb5b14610130578063d24257c01461017c578063d40c47d714610192578063e04e5475146101a857600080fd5b80630f704a8f146100805780634c8d0f0c146100a657806370967889146100c65780637dbd283214610103575b600080fd5b61009361008e366004610701565b6101d5565b6040519081526020015b60405180910390f35b3480156100b257600080fd5b506100936100c1366004610723565b6104ee565b3480156100d257600080fd5b506100e66100e136600461075f565b610592565b60408051825115158152602092830151928101929092520161009d565b34801561010f57600080fd5b5061009361011e36600461075f565b60026020526000908152604090205481565b34801561013c57600080fd5b506101647f000000000000000000000000000000000000000000000000000000000000000081565b6040516001600160a01b03909116815260200161009d565b34801561018857600080fd5b5061009360005481565b34801561019e57600080fd5b5061009360015481565b3480156101b457600080fd5b506100936101c336600461075f565b60009081526002602052604090205490565b60008054341161022b5760405162461bcd60e51b815260206004820152601860248201527f4e6f7420656e6f756768206d6f6e657920746f20706c61790000000000000000604482015260640160405180910390fd5b60008381526002602081905260409091206001018054909111156102c95780546000036102645760008481526002602052604090203490555b6040805160608101825284815233602080830191825260009383018481528554600180820188558787529290952093516003909502909301938455905190830180546001600160a01b0319166001600160a01b03909216919091179055516002909101555b80546002036104d8576000848152600260205260408120546102ec90349061078e565b9050600060646102fd8360146107a1565b61030791906107b8565b90508260018154811061031c5761031c6107da565b90600052602060002090600302016000015483600081548110610341576103416107da565b906000526020600020906003020160000154036104055760028360008154811061036d5761036d6107da565b906000526020600020906003020160020181905550600183600181548110610397576103976107da565b9060005260206000209060030201600201819055506103ef836001815481106103c2576103c26107da565b60009182526020909120600160039092020101546001600160a01b03166103e983856107f0565b836105fb565b6103f96001610694565b600193505050506104e8565b82600181548110610418576104186107da565b9060005260206000209060030201600001548360008154811061043d5761043d6107da565b906000526020600020906003020160000154146104d557600183600081548110610469576104696107da565b906000526020600020906003020160020181905550600283600181548110610493576104936107da565b9060005260206000209060030201600201819055506104be836000815481106103c2576103c26107da565b6104c86002610694565b60001993505050506104e8565b50505b6104e26000610694565b60009150505b92915050565b6000828152600260205260408120600101815b815481101561058757836001600160a01b0316828281548110610526576105266107da565b60009182526020909120600160039092020101546001600160a01b0316036105755781818154811061055a5761055a6107da565b906000526020600020906003020160020154925050506104e8565b8061057f81610803565b915050610501565b506000949350505050565b604080518082019091526000808252602082015260408051808201825260008082526020808301829052858252600290529190912060010154156104e857600181526000838152600260208190526040909120546105f091906107b8565b602082015292915050565b60405183907f0000000000000000000000000000000000000000000000000000000000000000906001600160a01b0383169085156108fc029086906000818181858888f19350505050158015610655573d6000803e3d6000fd5b506040516001600160a01b0382169084156108fc029085906000818181858888f1935050505015801561068c573d6000803e3d6000fd5b505050505050565b6106d9816040516024016106aa91815260200190565b60408051601f198184030181529190526020810180516001600160e01b031663f82c50f160e01b1790526106dc565b50565b6106d98160006a636f6e736f6c652e6c6f679050600080835160208501845afa505050565b6000806040838503121561071457600080fd5b50508035926020909101359150565b6000806040838503121561073657600080fd5b8235915060208301356001600160a01b038116811461075457600080fd5b809150509250929050565b60006020828403121561077157600080fd5b5035919050565b634e487b7160e01b600052601160045260246000fd5b808201808211156104e8576104e8610778565b80820281158282048414176104e8576104e8610778565b6000826107d557634e487b7160e01b600052601260045260246000fd5b500490565b634e487b7160e01b600052603260045260246000fd5b818103818111156104e8576104e8610778565b60006001820161081557610815610778565b506001019056fea26469706673582212209ffaaa55d28dc2d48ad485cf74793f3614ef73d969fb02f9e452b97b4523568964736f6c63430008110033",
  "devdoc": {
    "kind": "dev",
    "methods": {},
    "version": 1
  },
  "userdoc": {
    "kind": "user",
    "methods": {},
    "version": 1
  },
  "storageLayout": {
    "storage": [
      {
        "astId": 6,
        "contract": "contracts/Game1.sol:Game1",
        "label": "betAmount",
        "offset": 0,
        "slot": "0",
        "type": "t_uint256"
      },
      {
        "astId": 8,
        "contract": "contracts/Game1.sol:Game1",
        "label": "soldi",
        "offset": 0,
        "slot": "1",
        "type": "t_uint256"
      },
      {
        "astId": 32,
        "contract": "contracts/Game1.sol:Game1",
        "label": "sessions",
        "offset": 0,
        "slot": "2",
        "type": "t_mapping(t_bytes32,t_struct(Session)22_storage)"
      }
    ],
    "types": {
      "t_address": {
        "encoding": "inplace",
        "label": "address",
        "numberOfBytes": "20"
      },
      "t_array(t_struct(Player)15_storage)dyn_storage": {
        "base": "t_struct(Player)15_storage",
        "encoding": "dynamic_array",
        "label": "struct Game1.Player[]",
        "numberOfBytes": "32"
      },
      "t_bytes32": {
        "encoding": "inplace",
        "label": "bytes32",
        "numberOfBytes": "32"
      },
      "t_int256": {
        "encoding": "inplace",
        "label": "int256",
        "numberOfBytes": "32"
      },
      "t_mapping(t_bytes32,t_struct(Session)22_storage)": {
        "encoding": "mapping",
        "key": "t_bytes32",
        "label": "mapping(bytes32 => struct Game1.Session)",
        "numberOfBytes": "32",
        "value": "t_struct(Session)22_storage"
      },
      "t_struct(Player)15_storage": {
        "encoding": "inplace",
        "label": "struct Game1.Player",
        "members": [
          {
            "astId": 10,
            "contract": "contracts/Game1.sol:Game1",
            "label": "num",
            "offset": 0,
            "slot": "0",
            "type": "t_uint256"
          },
          {
            "astId": 12,
            "contract": "contracts/Game1.sol:Game1",
            "label": "player",
            "offset": 0,
            "slot": "1",
            "type": "t_address"
          },
          {
            "astId": 14,
            "contract": "contracts/Game1.sol:Game1",
            "label": "win",
            "offset": 0,
            "slot": "2",
            "type": "t_int256"
          }
        ],
        "numberOfBytes": "96"
      },
      "t_struct(Session)22_storage": {
        "encoding": "inplace",
        "label": "struct Game1.Session",
        "members": [
          {
            "astId": 17,
            "contract": "contracts/Game1.sol:Game1",
            "label": "bet",
            "offset": 0,
            "slot": "0",
            "type": "t_uint256"
          },
          {
            "astId": 21,
            "contract": "contracts/Game1.sol:Game1",
            "label": "players",
            "offset": 0,
            "slot": "1",
            "type": "t_array(t_struct(Player)15_storage)dyn_storage"
          }
        ],
        "numberOfBytes": "64"
      },
      "t_uint256": {
        "encoding": "inplace",
        "label": "uint256",
        "numberOfBytes": "32"
      }
    }
  }
}